:020000040800F2
:1000000010B5054C237833B9044B13B10448AFF352
:1000100000800123237010BD5C0800200000000058
:10002000F47F000808B5034B1BB103490348AFF345
:10003000008008BD0000000060080020F47F000878
:10004000154B002B08BF134B9D46A3F5803A0021AA
:100050008B460F461348144A121A07F05BF80F4BF1
:10006000002B00D098470E4B002B00D09847002063
:10007000002104000D000D48002802D00C4807F0B4
:1000800021FA06F0F1FF2000290001F0ABF806F09C
:10009000DBFF00BF000008000000000000000000BF
:1000A000000000005C080020FC5C0120C574000812
:1000B000D174000803685A004CBF43F0004323F09A
:1000C00000431844704700BF69B32DE9F04701F1C0
:1000D000FF3917460646C8464FF0000A0AEB0804E7
:1000E00004EBD4746410E50071190846FFF7E2FFD1
:1000F000A145034605F10800304409D0BB4209D8A8
:10010000FFF7D8FF0138B8420AD204F1010AE5E747
:10011000BB4205D9A24502D004F1FF38DEE7002139
:100120000846BDE8F0870846704700BF012807D0A1
:10013000022807D0044B00280CBF18460020704747
:100140000248704702487047090800080D08000877
:100150001108000830B5244B83B004468D1E4BB304
:1001600001A92846AFF30080F0B101992A46FFF7B4
:10017000ABFF0146C0B1FFF79DFF4B68A064012BA8
:100180002ED0002B01F1040026DBFFF793FF0023A4
:10019000C4E913030368002B12DBFFF78BFF002376
:1001A0002061184603B030BD00232361092318469F
:1001B00003B030BD0D490E48091AC9100191D5E7A9
:1001C000C3F30360FFF7B2FF002814BF0023092325
:1001D0002061184603B030BD0123C4E91303D9E7F9
:1001E000002323610523DCE700000000F080000805
:1001F000288000080368DA0710B5044606D49B0778
:1002000000F1480009D500F055FC2368590709D5CD
:100210001A070ED5DB0613D510BD00F043FC23688A
:100220005907F5D404F1D00000F04CFC23681A07FC
:10023000F0D404F5A87000F04DFC2368DB06EBD485
:1002400004F5E870BDE8104000F088BC036803B115
:1002500003441846704700BF09207047704700BF2D
:1002600070B504460D46296C2046FFF773FF06461D
:1002700088B92B6C63612A4623692146012098477F
:100280000828F0D0072806D13046296CFFF7E6FF92
:10029000281D00F0FBFB06F0CFFE00BF2DE9F04764
:1002A0000C1D054617460FCCADF5727D03AE0FC68B
:1002B0000FCC0FC60FCC0FC694E80F0002ACD5F8D8
:1002C0000C80D5F8189086E80F0000232846216C92
:1002D0002360FFF73FFF002F064614BF0A270927B8
:1002E00046BB236C6B614FF4F07221467AA800F094
:1002F00057FE2B697AAA294638469847889B82463A
:10030000CDE90049394663642A462B460120C0479F
:10031000D8B94FF4F0727AA9204600F041FEBAF144
:10032000080F18D1216C2846FFF714FF064609274D
:10033000002ED6D0A36B47F01001CDE900492A4624
:10034000636401202B46C04700B1092630460DF5F5
:10035000727DBDE8F087BAF1070FF6D13046216C07
:10036000FFF77CFF03A800F091FB00BF406C7047D3
:10037000F0B5CB6B0B640E1D0F4604460FCEF9B0E3
:1003800001AD0FC50FCE0FC50FCE0FC596E80F00FC
:100390004FF0FF3685E80F00009606E023696A46B5
:1003A000214698470828054608D110992046FFF7AE
:1003B000D1FE0028F2D0092079B0F0BD6846FFF7E1
:1003C00019FF062DF7D139462046FFF749FF00BF38
:1003D00030B4DD6BC160826119461D64002230BCFF
:1003E0005CE700BF70B5C66843690B64AEB90369CA
:1003F0000A4604460D46014602209847072805D0C4
:1004000008280FD129462046FFF72AFF3046296CDD
:10041000FFF724FF281D00F039FB0122FFF73EFF04
:1004200006F00AFE06F008FEC2681AB1CA6B0A643A
:10043000002233E79CE700BF704700BF836813B119
:100440000146012018477047042910D8DFE801F061
:1004500005030F0303000120704743B90F2A06D894
:1004600000EB820218465368009A1360704702201E
:10047000704700BF10B584B0002303AC0A46009457
:100480001946FFF7E1FF039804B010BD042910D806
:10049000DFE801F005030F0303000120704743B9B3
:1004A0000F2A06D800EB8200009A126842601846B4
:1004B00070470220704700BF10B584B0002303AC22
:1004C000039200940A461946FFF7E0FF04B010BDFE
:1004D000F0B5D36B1364151D07460E460FCDADF571
:1004E0000F7D17AC0FC40FCD0FC40FCD0FC495E80F
:1004F0000F004FF0FF3584E80F00169510E016A8A6
:10050000FFF7DAFF314616A8B84716AA694678B948
:10051000049B08209847052804460AD0092807D0DC
:1005200026996846FFF716FE6A460C210028E6D099
:10053000092416A8FFF75EFE20460DF50F7DF0BDDD
:100540002DE9F04FCC6C89B00D4654F8041B06948D
:10055000174600F003081E46002B61D00B0CDAB2E0
:1005600009048DF81D30022304EB820405918DF8F7
:100570001C302B6DB8F1020F08BFAC6B13F00103F8
:1005800078D1019300F008030293D4F800A0BAF1E7
:10059000000F00F01B81022E3ED0B4F800A0B4F88A
:1005A00002900434AA6C29F0010B0F2138469344C1
:1005B000FFF760FF83452DD82AF001025A4482429A
:1005C00094BF002001204FEA490303F002030AF020
:1005D000010A43EA0A03012B30D03BB3022B15D1A9
:1005E000236823F0004BB8F1000F4DD130B1029ACF
:1005F000002A6DD0BBF1000F00F0A080002B00DAC4
:1006000004340BF1010B04EB8B04BEE7092009B0A5
:10061000BDE8F08F0020D6E7D4F804900834C1E795
:10062000090203230591ADF81C30A2E7B8F1000FD1
:1006300002D0002840F09D800434A6E7B8F1000FF6
:100640002CD1A8B1D4E90023991C4FEAD272DDD095
:1006500005F158010133049100F09E80201DFFF741
:10066000F5FD04AB01462846AFF3008000286FD1AA
:1006700008348AE7384605A900F00AFB0028C5D1EE
:10068000082009B0BDE8F08F0D213846D5F820903C
:10069000FFF7F0FE814540D02368AFE70D213846D3
:1006A000D5F82090FFF7E6FE8145E1D1AB6A9C4288
:1006B000DED12046FFF7FEFC0F2102463846FFF749
:1006C000FBFE38462A460021FFF7F6FE07209EE78C
:1006D000BBF1000F32D005F15803CDF80C8004F1C6
:1006E0000409B046DDF808A01E4601E0DA4525D031
:1006F00048460496FFF7AAFD04AB014600222846AF
:10070000AFF300800AF1010A09F104090028EDD0D5
:1007100046462368DDF80C8070E7AB6A9C42BBD18B
:1007200004224FF00009A318C5E90AB9C5E90C2352
:1007300023684B4538DB0123019362E738460D21DE
:10074000FFF798FE049B2862C5E9093406205EE79E
:1007500081460D213846FFF78DFEB9F1020F286260
:100760001FD12B46049A43F82C2F6B62AC620620F3
:100770004DE72046FFF79EFC04340646AC6328464E
:10078000AFF3008000283FF441AF384632460F21D6
:10079000FFF792FE07203AE738460D21FFF76AFE81
:1007A0002862049B6B62E1E70BF1010004EB80001F
:1007B000FFF780FC0F2102463846FFF77DFE3846E2
:1007C0002A464946FFF778FE072020E705A9384664
:1007D00000F05EFA00287FF419AF019B002B3FF474
:1007E0004FAF0F213846FFF745FE0E21024638462F
:1007F000FFF762FE3846034A0F21FFF75DFE072030
:1008000005E700BF00000000002399E6012397E6FA
:10081000022395E62DE9F0410546C4B0042900F213
:10082000B380DFE801F09551B12B0300002B40F0BD
:10083000AB80102A00F2A8802B68DC0600F1FA8059
:1008400022AC2046019200F093F9AE6B019A00238E
:10085000012707FA03F11142304604D050F8041B77
:1008600044F8231006460133042BF2D12046AE6330
:1008700000F074F9002044B0BDE8F081032B40F093
:100880008380160C97B2F319102B7DD82B681A07AA
:1008900000F1DA8022AC204600F03EF904EBC600FD
:1008A000A96B4FB10346FA001044CE1A9F5943F882
:1008B000047B8342FAD111442046A96300F00AF96F
:1008C000002044B0BDE8F081012B4FEA12461FFA28
:1008D00082F855D0052B57D106EB0807202F53D8A7
:1008E0000F2E55D94746B8F1000F64D14046A96B89
:1008F000B8F1000F00F0B780002722AC04EBC6046B
:10090000043C01EBC00251F8040B44F8040F91427F
:10091000F9D17FB102AC102E304638BF102004EB65
:10092000C000843802EBC70152F8044B40F8044F72
:100930009142F9D1012B00F08F800F2EA96365D968
:1009400017B102A800F0BEF8002044B0BDE8F08165
:10095000D3B9AC6B97B2012605F1040C06FA03F18A
:100960003942204604D050F8041B4CF823100446AA
:100970000133102BF2D112F40050E5D1AC6304E046
:1009800006EB0802102A28D9022044B0BDE8F08105
:10099000102F6AD9103F2A68D0070AD5284622F0BE
:1009A000010242F0020240F8482B019300F086F861
:1009B000019B002F5BD02A68510731D40F2E29D913
:1009C00002AC2046019300F081F8C6F11000002827
:1009D000A96B019B91DC0A469DE70F2ED4D82A68AB
:1009E000D10708D5284622F0030240F8482B01938E
:1009F00000F05CF8019B019322AC204600F056F811
:100A00004046A96B019B40B3002777E722A800F07E
:100A100051F895E722A8019300F050F8019BCFE729
:100A2000284622F0040240F8D02B019300F04EF843
:100A3000019BC3E723F010032B6005F5E8700192DA
:100A400000F096F8019AFBE623F008032B6005F509
:100A5000A87000F061F81DE722AC0431A9632046BC
:100A600000F020F870E7474667E7002793E70F2E6E
:100A70003FF63CAF22AC2046019300F01FF8404601
:100A8000A96B019B00287FF439AF56E700F13401D0
:100A900091E838009C46A6464CF8045D90E8FF0FAC
:100AA000E54600BD90EC210B704700BF80EC210BA8
:100AB000704700BF90EC200B704700BF80EC200B0C
:100AC000704700BFD0EC200B704700BFC0EC200B7C
:100AD000704700BFF0EC0201F0EC0211F0EC0221D3
:100AE000F0EC0231F0EC0241F0EC0251F0EC02616A
:100AF000F0EC0271F0EC0281F0EC0291F0EC02A15A
:100B0000F0EC02B1F0EC02C1F0EC02D1F0EC02E149
:100B1000F0EC02F1704700BFE0EC0201E0EC0211E2
:100B2000E0EC0221E0EC0231E0EC0241E0EC0251A9
:100B3000E0EC0261E0EC0271E0EC0281E0EC029199
:100B4000E0EC02A1E0EC02B1E0EC02C1E0EC02D189
:100B5000E0EC02E1E0EC02F1704700BFB0FC018183
:100B6000B0FC0191B0FC01A1B0FC01B1704700BF25
:100B7000A0FC0181A0FC0191A0FC01A1A0FC01B19D
:100B8000704700BFEC4600B52DE900502DE9FF1F6E
:100B90004FF000032DE90C0001A9FFF7E9FBDDF898
:100BA00040E012B0704700BFEC4600B52DE90050A0
:100BB0002DE9FF1F4FF000032DE90C0001A9FFF7FD
:100BC00011FCDDF840E012B0704700BFEC4600B504
:100BD0002DE900502DE9FF1F4FF000032DE90C0017
:100BE00001A9FFF721FCDDF840E012B0704700BF1B
:100BF000EC4600B52DE900502DE9FF1F4FF0000332
:100C00002DE90C0001ABFFF7E3FBDDF840E012B08B
:100C1000704700BFEC4600B52DE900502DE9FF1FDD
:100C20004FF000032DE90C0001AAFFF751FCDDF89D
:100C300040E012B0704700BF027A82B9437AABB18C
:100C40004268013B10B4437213680321141D017202
:100C50001A02446002605DF8044B180E7047036886
:100C6000013A02721A020260180E7047B0207047F3
:100C700000B585B003AA0023009219460C22FFF7A5
:100C8000E3FB039805B05DF804FB00BFF0E700BF8D
:100C90002DE9F043054685B00E464FF0000830467A
:100CA000FFF7CAFFB028044600F0B280070620D53F
:100CB00000F0F003802B4DD0902B36D0A02B60D0CD
:100CC000B02B74D0C02B00F08B8000F0F803D02B39
:100CD0000BD100F00702013242F40022052301216A
:100CE0002846FFF797FD0028D9D0092005B0BDE8B8
:100CF000F0830DF10C09002319468700CDF8009010
:100D00000D222846FFF7A0FBFFB2039BCDF8009011
:100D1000043760064CBFDF1BFF18002319460D2265
:100D200028460397FFF7B2FBB9E700F00D030D2B40
:100D3000DBD003AF002300F00F02194600972846CE
:100D4000FFF782FB0023009719460D222846FFF784
:100D50009DFBA4E73046FFF76FFF24020443B4F580
:100D6000004FC2D024010023A2B219462846FFF743
:100D700051FD0028B9D114F4004F18BF4FF00108FD
:100D80008DE7C24302F007034FF47F621A41010767
:100D900002F47F624FF0000348BF42F480421946DC
:100DA0002846FFF737FD00283FF479AF9DE7B128CB
:100DB00033D0B22800F0A080B32841D000F0FC036B
:100DC000B42B92D000F007020132012342F400223A
:100DD00019462846FFF71EFD00283FF460AF84E760
:100DE000C62851D0C7285AD000F0F803C02B69D0CC
:100DF000C82875D0C9287FF478AF3046FFF71CFFAC
:100E0000020300F00F0002F470220130024365E794
:100E1000B8F1000F27D0002068E73046FFF70CFF3D
:100E200000283FF462AF10F0F0037FF45EAF02469B
:100E300019462846FFF7EEFC00283FF430AF54E790
:100E40003046FFF7F9FE010300F00F0001F47021B6
:100E5000421C01230A4328461946FFF7DBFC002801
:100E60003FF41DAF41E703AC43460E2241460094D8
:100E70002846FFF7E9FA0094284643460F224146E8
:100E8000FFF704FB404631E73046FFF7D5FE01038C
:100E900000F00F0001F47021421C0323DAE7304612
:100EA000FFF7CAFE00283FF420AF10F0F0037FF4F4
:100EB0001CAF024604212846FFF7ACFC00283FF493
:100EC000EEAE12E700F00F020132032342F42022BB
:100ED00019462846FFF79EFC00283FF4E0AE04E7E1
:100EE0003046FFF7A9FE00F0F00200F00F031032C9
:100EF000013343EA0232F1E600230DF10C090D2221
:100F00001946CDF800902846FFF79EFA3046FFF7C5
:100F100093FE02064FF002070CD5039B00F07F0002
:100F2000B840034430460393FFF786FE030607F1FB
:100F30000707F2D4039BCDF8009000F07F0403F57F
:100F40000172BC400023144419460D222846039424
:100F5000FFF79CFAA3E600BF10B5C36C84B05A68D3
:100F600003208DF80C00DC798DF80D401202083357
:100F7000084601A901920293FFF78AFE04B010BD52
:100F800008B5FFF783FE806C08BD00BF08B5FFF70A
:100F90007DFEC06CC379023300EB830008BD00BF47
:100FA000844641EA000313F003036DD1403A41D374
:100FB00051F8043B40F8043B51F8043B40F8043B33
:100FC00051F8043B40F8043B51F8043B40F8043B23
:100FD00051F8043B40F8043B51F8043B40F8043B13
:100FE00051F8043B40F8043B51F8043B40F8043B03
:100FF00051F8043B40F8043B51F8043B40F8043BF3
:1010000051F8043B40F8043B51F8043B40F8043BE2
:1010100051F8043B40F8043B51F8043B40F8043BD2
:1010200051F8043B40F8043B51F8043B40F8043BC2
:10103000403ABDD2303211D351F8043B40F8043B62
:1010400051F8043B40F8043B51F8043B40F8043BA2
:1010500051F8043B40F8043B103AEDD20C3205D372
:1010600051F8043B40F8043B043AF9D2043208D06A
:10107000D2071CBF11F8013B00F8013B01D30B88DC
:1010800003806046704700BF082A13D38B078DD0BA
:1010900010F003038AD0C3F10403D21ADB071CBF8C
:1010A00011F8013B00F8013B80D331F8023B20F8F6
:1010B000023B7BE7043AD9D3013A11F8013B00F82F
:1010C000013BF9D20B7803704B7843708B788370B7
:1010D00060467047000000000000000000000000B3
:1010E0000000000000000000000000000000000000
:1010F00000000000000000000000000000000000F0
:1011000090F800F06DE9024520F007016FF0000C47
:1011100010F0070491F820F040F049804FF00004EF
:101120006FF00700D1E9002391F840F000F10800CA
:1011300082FA4CF2A4FA8CF283FA4CF3A2FA8CF302
:101140004BBBD1E9022382FA4CF200F10800A4FA69
:101150008CF283FA4CF3A2FA8CF3E3B9D1E90423BD
:1011600082FA4CF200F10800A4FA8CF283FA4CF3F4
:10117000A2FA8CF37BB9D1E9062301F1200182FAAE
:101180004CF200F10800A4FA8CF283FA4CF3A2FAB4
:101190008CF3002BC6D0002A04BF04301A4612BAC2
:1011A000B2FA82F2FDE8024500EBD2007047D1E9C5
:1011B000002304F00305C4F100004FEAC50514F054
:1011C000040F91F840F00CFA05F562EA05021CBF25
:1011D00063EA050362464FF00004A9E7FEE700BF9B
:1011E000FEE700BF144915480B68154A30B543F0B7
:1011F000807300240B600460136843F0010383B024
:10120000136003F0D1FB022504F008FB0D4B0193A2
:10121000822223460C4900950C4801F003FA0C4A3F
:101220000192234682220B4900950B4801F0FAF9FE
:1012300001F0CEFDFEE700BFFCED00E0041000E091
:10124000001000E078080020D07E0008DD110008C2
:101250007C080020D87E0008E1110008704700BF1C
:10126000704700BF704700BF704700BF704700BFA6
:10127000704700BF3849394BD1F88820384842F4CC
:101280007002C1F888201A68002142F001021A6039
:1012900099601A6822F0847222F480321A605860D1
:1012A0001A6882B022F480221A60D96000910191FC
:1012B0001A6842F480321A6003E0009AB2F5A06F17
:1012C00009D01A6802F400320192009A01320092A9
:1012D000019A002AF1D0214B1B6813F4003318BF88
:1012E00001230193019B012B05D01B4B4FF00062A2
:1012F0009A6002B07047194B1A491A6C1A4842F0AA
:1013000080521A640A6842F480420A609A689A60BD
:101310009A6842F400429A609A6842F4A0529A6035
:1013200058601A6842F080721A601A689201FCD5FF
:101330000E4A0A4940F2056010609A6822F00302E2
:101340009A609A6842F002029A608B6803F00C037C
:10135000082BFAD1C9E700BF00ED00E000380240D9
:10136000103000240070004008544007003C024048
:10137000164A936803F00C03042B0CD0082B0CD0F6
:10138000134B124A134892681349C2F30312825C4A
:10139000D3400B607047114BF3E7506851685268B7
:1013A0004302C2F3881201F03F014CBF0B4B084BC4
:1013B000B3FBF1F303FB02F3044A5268C2F30142A8
:1013C00001325200B3FBF2F3DBE700BF003802400A
:1013D0000024F400040000201400002000127A0011
:1013E00000F108034FF0FF3100228160026043608A
:1013F000C0E90333704700BF00230361704700BF9B
:101400004368026810B49C688C609C684B60013231
:10141000616099605DF8044B08610260704700BF2D
:1014200030B40D686B1C11D000F1080200E01A46C0
:1014300053681C68AC42FAD904684B600134996067
:101440008A6051600861046030BC7047026953686B
:10145000F2E700BF036910B4D0E901125C688A604A
:101460008442516008BF5A601A685DF8044B00213D
:10147000013A01611A601868704700BF70B51646DE
:10148000026C856B04462AB90668013546B3002014
:10149000A56370BD86B94068FFF782FD6368216C63
:1014A000A2680B44934205F101056360EFD3236802
:1014B00063603046A56370BDC068FFF771FD226CA4
:1014C000E3682168524213448B42E36002D2A3686E
:1014D0001A44E260022E08D001350020A56370BDD9
:1014E000806802F0B7F9A660D2E7002DCFD10125C0
:1014F0000020CDE7026C72B110B40B46D0E9024176
:101500001144A142C16024BF0168C1605DF8044B71
:101510001846FFF745BD704770B5054603F0D4F88F
:1015200095F8454064B2002C16DD6B6AA3B105F155
:10153000240605E0013CE3B25CB26BB16B6A5BB1BF
:10154000304601F015FF0028F4D0013C02F012F8FB
:10155000E3B25CB2002BF1D1FF2385F8453003F0F4
:10156000D5F803F0B1F895F8444064B2002C16DDCC
:101570002B69A3B105F1100605E0013CE3B25CB2B2
:101580006BB12B695BB1304601F0F2FE0028F4D05C
:10159000013C01F0EFFFE3B25CB2002BF1D1FF237D
:1015A00085F84430BDE8704003F0B0B838B5E0B11C
:1015B00004460D4603F088F8D4E90F1322686260F0
:1015C00001FB03F1CB1A134400200A44FF21A0635E
:1015D000C4E9022384F8441084F84510EDB9236966
:1015E00063B903F093F8012038BD4FF0500383F343
:1015F0001188BFF36F8FBFF34F8FFEE704F1100028
:1016000001F0B6FE0028ECD00A4B4FF080521A6071
:10161000BFF34F8FBFF36F8FE3E704F11000FFF7C5
:10162000DFFE04F12400FFF7DBFE03F06FF801207A
:1016300038BD00BF04ED00E0F8B5064617460D467C
:1016400051B100FB01F0503002F0E6FE0446C8B193
:1016500000F15003036005E0502002F0DDFE044677
:1016600080B12460C4E90F6501212046FFF79EFF89
:1016700084F84C703B462A463146732004F09AFAAF
:101680002046F8BD00242046F8BD00BF40B94FF009
:10169000500383F31188BFF36F8FBFF34F8FFEE7C3
:1016A000FFF7CABF40B94FF0500383F31188BFF36F
:1016B0006F8FBFF34F8FFEE7884208D24FF0500381
:1016C00083F31188BFF36F8FBFF34F8FFEE710B521
:1016D00002220C460021FFF7AFFF00B1846310BD6A
:1016E0002DE9F04786B00392002878D000296AD00F
:1016F000022B0BD1C26B012A08D04FF0500383F3A9
:101700001188BFF36F8FBFF34F8FFEE704461D466E
:101710000E4602F039F800286AD04FF00008DFF8D2
:1017200070A14FF0000908E002F0F0FF2046FFF73B
:10173000F3FE01F0A1FC4FF0010802F0C5FFA26B1F
:10174000E36B9A4264D3022D62D0039F002F00F016
:101750009980B8F1000F57D002F0D8FF01F09AFB42
:1017600002F0B2FF94F84430FF2B08BF84F8449095
:1017700094F84530FF2B08BF84F8459002F0C6FF6F
:1017800003A904A801F0AEFE002868D102F09CFF76
:10179000A26BE36B9A42C7D102F0B8FF039904F140
:1017A000100001F07DFD2046FFF7B6FE01F064FC5D
:1017B0000028C0D14FF08053CAF80030BFF34F8FDC
:1017C000BFF36F8FB7E7026C002A91D04FF0500340
:1017D00083F31188BFF36F8FBFF34F8FFEE74FF096
:1017E000500383F31188BFF36F8FBFF34F8FFEE772
:1017F000039B002B49D04FF0500383F31188BFF3B4
:101800006F8FBFF34F8FFEE704A801F05FFEA3E7E1
:10181000204603F0CDFF039B0095014632465A2037
:1018200004F0FCF92A4631462046FFF727FE636A9A
:1018300073B938B1164B4FF080521A60BFF34F8F17
:10184000BFF36F8F02F062FF012006B0BDE8F087A2
:1018500004F1240001F08CFD0028F3D0EAE72046D3
:10186000FFF75AFE01F008FC204603F0A1FF0095A7
:1018700001463246039B5A2004F0D0F9002006B0FE
:10188000BDE8F08702F042FFEEE7984647E700BF69
:1018900004ED00E010B5024600210120FFF7CCFE68
:1018A000044638B1002383600360C3601A461946BA
:1018B000FFF716FF204610BD38B538B185680446DD
:1018C00001F05CFF85420AD0002038BD4FF0500384
:1018D00083F31188BFF36F8FBFF34F8FFEE7E36889
:1018E000013BE3600BB1012038BD20461A46194682
:1018F000FFF7F6FE012038BD2DE9F84300284DD052
:1019000000293FD0022B0BD1C46B012C08D04FF023
:10191000500383F31188BFF36F8FBFF34F8FFEE740
:10192000044698461746894603F002F8EFF31186FD
:101930004FF0500383F31188BFF36F8FBFF34F8FC6
:10194000A26BE36B9A4202D3B8F1020F3DD120465D
:1019500094F8455003F02CFF3A460146602004F00D
:10196000E5F86DB2424649462046FFF787FD6B1CFD
:101970001DD06B1C5BB284F84530012086F31188C2
:10198000BDE8F883046C002CBCD04FF0500383F307
:101990001188BFF36F8FBFF34F8FFEE74FF05003F7
:1019A00083F31188BFF36F8FBFF34F8FFEE7636A36
:1019B000002BE2D004F1240001F0DAFC0028DCD096
:1019C000002FDAD001203860D8E7204603F0F0FE7F
:1019D0003A460146602004F0A9F8002086F31188F9
:1019E000BDE8F88300283AD0036C43B14FF05003B0
:1019F00083F31188BFF36F8FBFF34F8FFEE7036848
:101A0000B3B32DE9F04104460F4602F091FFEFF326
:101A100011864FF0500383F31188BFF36F8FBFF32C
:101A20004F8FD4F83880E36B43452DD9204694F886
:101A3000455003F0BDFE3A460146602004F076F8BA
:101A40006DB208F10103A3636B1C2AD06B1C5BB25F
:101A500084F84530012086F31188BDE8F0814FF00D
:101A6000500383F31188BFF36F8FBFF34F8FFEE7EF
:101A70008368002BC5D04FF0500383F31188BFF368
:101A80006F8FBFF34F8FFEE7204603F091FE3A467B
:101A90000146602004F04AF8002086F31188BDE872
:101AA000F081636A002BD5D004F1240001F060FCC2
:101AB0000028CFD0002FCDD001203860EDE700BF47
:101AC0002DE9F04387B0039200287ED0002963D02F
:101AD00004460F4601F058FE002851D002F0F4FDF4
:101AE000A56B002D40F09480039B002B35D004A8FB
:101AF00001F0ECFCDFF898912E4604F1240802F086
:101B000005FE01F0C7F902F0DFFD94F84430FF2B29
:101B100008BF84F8446094F84530FF2B08BF84F870
:101B2000456002F0F3FD03A904A801F0DBFC0028E6
:101B30003ED102F0C9FDA36B002B4FD002F0E6FDB1
:101B40002046FFF7E9FC01F097FA02F0BDFDA56B16
:101B5000002D5DD1039B002BD1D102F0D7FD204693
:101B600003F026FE0446002003F022FE0123024675
:101B700000935C202146039B04F050F8002074E0A1
:101B8000039B002BAAD04FF0500383F31188BFF3BF
:101B90006F8FBFF34F8FFEE7036C002B98D04FF091
:101BA000500383F31188BFF36F8FBFF34F8FFEE7AE
:101BB0002046FFF7B1FC01F05FFA02F085FDA56B4E
:101BC000002D40D002F0A2FDBFE74FF0500383F399
:101BD0001188BFF36F8FBFF34F8FFEE702F096FDC2
:101BE0000399404601F05CFB2046FFF795FC01F0AD
:101BF00043FA0028A9D14FF08053C9F80030BFF351
:101C00004F8FBFF36F8F02F05FFDA56B002DA1D04A
:101C100039462046FFF76EFC204603F0C9FD064614
:101C2000002003F0C5FD0123024600933146039BCB
:101C30005C20013D03F0F2FFA5632369C3B902F004
:101C400065FD012011E002F061FD204603F0B0FDCA
:101C50000446284603F0ACFD0123024600935C20B5
:101C60002146039B03F0DAFF284607B0BDE8F08366
:101C700004F1100001F07CFB0028E0D0044B4FF091
:101C800080521A60BFF34F8FBFF36F8FD7E700BF4B
:101C900004ED00E02DE9F04387B0039150B1056CED
:101CA0008DB14FF0500383F31188BFF36F8FBFF3F3
:101CB0004F8FFEE74FF0500383F31188BFF36F8F10
:101CC000BFF34F8FFEE7044601F05EFD002800F0F1
:101CD000828002F0F9FCD4F83880DFF8D4912E46E7
:101CE0000027B8F1000F32D1039B002B00F0C38016
:101CF000002E54D002F00AFD01F0CCF802F0E4FC12
:101D000094F84430FF2B08BF84F8447094F84530B1
:101D1000FF2B08BF84F8457002F0F8FC03A904A863
:101D200001F0E0FB78BB02F0CFFCA36B002B5FD08F
:101D300002F0ECFC2046FFF7EFFB01F09DF902F00A
:101D4000C3FCD4F838800126B8F1000FCCD020466F
:101D500003F02EFD0546002003F02AFD0123024674
:101D600000932946039B5C2003F058FF226808F18A
:101D7000FF33A363002A6CD02369002B5AD102F0F1
:101D8000C5FC012523E02046FFF7C6FB01F074F9EE
:101D900002F09AFCA36B33B102F0B8FCCFE704A8C1
:101DA00001F094FBA6E702F0B1FC002D55D12046CE
:101DB00003F0FEFC0446002003F0FAFC0123024677
:101DC00000932146039B5C2003F028FF0025284652
:101DD00007B0BDE8F083039D002D3FF47AAF4FF0CC
:101DE000500383F31188BFF36F8FBFF34F8FFEE76C
:101DF00002F08CFC2368A3B1039904F1240001F0E4
:101E00004FFA2046FFF788FB01F036F9002896D1FB
:101E10004FF08053C9F80030BFF34F8FBFF36F8F7F
:101E20008DE702F051FCA06801F0BEFC054602F00F
:101E30006DFCE1E704F1100001F09AFA00289ED051
:101E40001B4B4FF080521A60BFF34F8FBFF36F8F61
:101E500095E701F0D1FDA0608EE702F035FC616AE4
:101E600019B1236B1968C1F10501A06801F050FD9B
:101E700002F04CFC9BE745B14FF0500383F311880F
:101E8000BFF36F8FBFF34F8FFEE702F03FFC20469A
:101E900003F08EFC0446284603F08AFC0123024628
:101EA00000932146039B5C2003F0B8FE8FE700BF40
:101EB00004ED00E0A8B170B5866804460D4601F057
:101EC0005DFC864208D029462046FFF7E3FE10B1AC
:101ED000E3680133E36070BDE3680133E360012030
:101EE00070BD4FF0500383F31188BFF36F8FBFF3C2
:101EF0004F8FFEE72DE9F04186B00392002870D0A5
:101F0000002955D004460D4601F03EFC002843D080
:101F100002F0DAFBA66B002E40F08280039B002BC0
:101F200034D004A801F0D2FADFF8488104F1240784
:101F300002F0ECFB00F0AEFF02F0C6FB94F8443078
:101F4000FF2B08BF84F8446094F84530FF2B08BF8E
:101F500084F8456002F0DAFB03A904A801F0C2FA94
:101F6000002831D102F0B0FBA36B002B42D002F06D
:101F7000CDFB2046FFF7D0FA01F07EF802F0A4FB7B
:101F8000A36B002B4CD1039B002BD1D102F0BEFBE5
:101F9000002006B0BDE8F081039B002BB8D04FF0C5
:101FA000500383F31188BFF36F8FBFF34F8FFEE7AA
:101FB000036C002BA6D04FF0500383F31188BFF3BE
:101FC0006F8FBFF34F8FFEE72046FFF7A5FA01F0B2
:101FD00053F802F079FBA36B002BD7D002F096FBED
:101FE000CCE74FF0500383F31188BFF36F8FBFF33B
:101FF0004F8FFEE702F08AFB0399384601F050F953
:102000002046FFF789FA01F037F80028B6D14FF0E3
:102010008053C8F80030BFF34F8FBFF36F8FADE729
:1020200029462046E668FFF765FA204603F0C0FB24
:102030000746284603F0BCFB0123024600933946BD
:10204000039B5C2003F0EAFD636AE6601BB902F0C3
:102050005DFB01209DE704F1240001F089F90028CF
:10206000F5D0044B4FF080521A60BFF34F8FBFF38F
:102070006F8FECE704ED00E0002853D0002945D035
:102080002DE9F04705469046894602F051FCEFF3F2
:1020900011874FF0500383F31188BFF36F8FBFF3A5
:1020A0004F8FAC6B8CB9284603F082FB054648463F
:1020B00003F07EFB434602462946622003F07AFD88
:1020C000204687F31188BDE8F087284695F84460DC
:1020D00003F06EFB8246484603F06AFB4346024625
:1020E0005146622003F066FD76B249462846FFF766
:1020F00001FA013C731CAC631DD0731C5BB285F804
:102100004430012087F31188BDE8F087036C002B71
:10211000B6D04FF0500383F31188BFF36F8FBFF336
:102120004F8FFEE74FF0500383F31188BFF36F8F9B
:10213000BFF34F8FFEE72B69002BE2D005F11000B3
:1021400001F016F90028DCD0B8F1000FD9D0012039
:10215000C8F80000B5E700BFF8B5B0B1036C49B1ED
:10216000E3B94FF0500383F31188BFF36F8FBFF3D0
:102170004F8FFEE7002BF4D04FF0500383F311880C
:10218000BFF36F8FBFF34F8FFEE74FF0500383F322
:102190001188BFF36F8FBFF34F8FFEE704460D46E4
:1021A00002F0C6FBEFF311874FF0500383F3118861
:1021B000BFF36F8FBFF34F8FA66B2046A6B103F01E
:1021C000F7FA0646284603F0F3FA314602465B204A
:1021D00003F0ACFC29462046E568FFF78BF9E56083
:1021E000012087F31188F8BD03F0E2FA044628467F
:1021F00003F0DEFA214602465B2003F097FC3046EE
:10220000EFE700BF40B110B5044602F05DFAA46BE1
:1022100002F07CFA204610BD4FF0500383F3118882
:10222000BFF36F8FBFF34F8FFEE700BF50B110B504
:10223000044602F049FAA36BE46BE41A02F066FA72
:10224000204610BD4FF0500383F31188BFF36F8F0A
:10225000BFF34F8FFEE700BF08B1806B70474FF0B0
:10226000500383F31188BFF36F8FBFF34F8FFEE7E7
:10227000B8B110B5044603F09BFA01465F2003F0A5
:1022800037FC1249002351F8330084424FEAC3025D
:1022900010D00133082BF6D12046BDE8104002F0E3
:1022A0004FB94FF0500383F31188BFF36F8FBFF323
:1022B0004F8FFEE706490A440020506041F8330082
:1022C0002046BDE8104002F03BB900BFF05B0120A2
:1022D000EC5B0120806C70478164704790F84C0083
:1022E000704700BF20B1806BB0FA80F040097047A2
:1022F0004FF0500383F31188BFF36F8FBFF34F8FFD
:10230000FEE700BF30B1836BC06BC01AB0FA80F03B
:10231000400970474FF0500383F31188BFF36F8F6C
:10232000BFF34F8FFEE700BF70B50C4C002354F88D
:10233000335004EBC3061DB10133082BF7D170BD38
:1023400070600D4644F8331003F032FA2A46014615
:10235000BDE87040712003F0E9BB00BFEC5B0120D9
:102360000749002351F83320824204D00133082B5F
:10237000F8D100207047034A52F83300704700BF7D
:10238000F05B0120EC5B012010B40B49002351F8F5
:10239000332082424FEAC30405D00133082BF6D123
:1023A0005DF8044B7047054A14440021616042F80F
:1023B00033105DF8044B7047F05B0120EC5B0120AB
:1023C00070B504460D46164602F07EF994F8443086
:1023D000FF2B04BF002384F8443094F84530FF2BD2
:1023E00004BF002384F8453002F090F9A36B23B1B9
:1023F0002046BDE87040FFF78FB804F12400324654
:10240000294600F093FF2046BDE87040FFF784B8EE
:10241000F8B5204B204D1C682B680646181D0F464A
:10242000FFF718F840B92B681C49D86A0B680122DD
:10243000824023EA02030B60731C1ED02B682868BD
:10244000A4195C604FF0040109D304F031F9144B76
:1024500018682968BDE8F8400431FEF7E1BF04F0D0
:1024600027F9104B186829680431FEF7D9FF0E4B85
:102470001A68A24288BF1C60F8BD002FDED0286811
:102480001B2104F015F9296808480431BDE8F8401B
:10249000FEF7B6BF7C090020800800200409002058
:1024A00088080020840800203409002054090020F6
:1024B00080B5174CDFF86480164E174FDFF860A028
:1024C0004FF0805915E002F0FFF8D8F80C30DD68C5
:1024D000281DFEF7BFFF3368013B33602368013BD3
:1024E000236002F013F9286B02F02AF8284602F064
:1024F00027F82368002BE6D13B68012B05D9CAF8E1
:102500000090BFF34F8FBFF36F8FFEF7ABFEF0E786
:10251000F4080020F00800208C0800206809002042
:1025200004ED00E068B10B4B42699A4201D00020F3
:102530007047806A084B9842F9D0B0FA80F04009A1
:1025400070474FF0500383F31188BFF36F8FBFF3D1
:102550004F8FFEE7540900203C090020034A044B3A
:102560001268D268D26852681A60704784080020E6
:1025700034090020264B10B50022264C1A6023682F
:102580001B6B1A68B2F1A53F03D15A68B2F1A53F9F
:1025900034D0206821683431FEF766FE1E4B1B687C
:1025A000B3FA83F3DBB2C3F11F0303EB83039B0096
:1025B0001A49CA58C81842B94FF0500383F311881A
:1025C000BFF36F8FBFF34F8FFEE742680833526847
:1025D00042600B449A4204BF52684260104BD2687A
:1025E000226022681B689A4204D02068BDE810402F
:1025F00004F008B8BDE8104003F0AEBF9A68B2F12D
:10260000A53FC6D1DB68B3F1A53FC2D1C6E700BF85
:102610008009002080080020040900208C08002088
:10262000300900202DE9F0474FEA820982B00746C1
:1026300048460D46984601F0EFFE002800F09A80CB
:102640000646582001F0E8FE0446002800F0978076
:102650000663002D00F09D804A46A521304604F017
:1026600059FD236BA9F10409994429F007096B1E50
:1026700004F13301093513F8012F01F8012F0AB1D4
:10268000AB42F8D10A9D042D28BF04254FF0000A63
:10269000261DE562A564304684F83DA0C4F84CA030
:1026A000FEF7AAFEC5F1050504F11800FEF7A4FE29
:1026B000C4F850A0A561246184F854A06462424625
:1026C0003946484601F0C0FF0B9B206003B11C60F7
:1026D00001F0FAFF4B4A4C4F1368013313603B681B
:1026E000002B5FD0DFF85881D8F800302BB93A685A
:1026F000E36AD26A9A4298BF3C60444A1368013345
:1027000023642046136003F039FF2146236B51F800
:10271000340BE26AC01A0090204602F0BDF9204650
:1027200003F0A4FFDFF81CC1E36ADCF800E03848DE
:10273000012505FA03F203EB830342EA0E0200EBE4
:1027400083003146CCF80020FEF75AFE01F0DEFF90
:10275000D8F80030CBB13A68E36AD26A9A4214D210
:102760002C4B4FF080521A60BFF34F8FBFF36F8F27
:10277000284601E04FF0FF3002B0BDE8F087304658
:1027800001F0DEFE4FF0FF30F6E7284602B0BDE86C
:10279000F0874FF0500383F31188BFF36F8FBFF3BF
:1027A0004F8FFEE73C601368012B02D0DFF890806A
:1027B000A3E71748DFF89090174DDFF88480FEF705
:1027C0000FFE1648FEF70CFE1548FEF709FE1548E9
:1027D000FEF706FE1448FEF703FE4846FEF700FE2D
:1027E0002846FEF7FDFD1148FEF7FAFD1048FEF7FA
:1027F000F7FD1048FEF7F4FD0F4A104BC2F80090A9
:102800001D607AE7F0080020800800200009002001
:102810008C08002004ED00E01C090020A008002026
:10282000B4080020C8080020DC0800203C09002073
:10283000680900205409002084080020880800202E
:1028400050090020040900200809002070B5044642
:10285000374D01F039FF002C53D0261D3046FEF7CE
:10286000F9FD38B9E16A334A01EB81039B00D35883
:10287000002B35D0A36A1BB104F11800FEF7EAFD66
:102880002D4A29681368A14203F1010313602FD078
:102890002A4A206B1368013B136001F051FE204669
:1028A00001F04EFE264B1B681B68A3B1FFF756FED6
:1028B000204602F07DFF0146222003F019F9204650
:1028C00002F08EF801F022FF1E4B1B6813B12B683B
:1028D000A34218D070BD1C4B4FF0FF321A60E7E7DF
:1028E0001A48012203688A4023EA02030360C1E711
:1028F00031461748FEF784FD164A1368013313600A
:10290000D6E72C68A9E7144B1B6843B14FF050037E
:1029100083F31188BFF36F8FBFF34F8FFEE70F4B29
:102920004FF080521A60BFF34F8FBFF36F8F70BDAF
:10293000800800208C08002000090020F0080020FA
:1029400084080020500900203409002004090020D8
:1029500068090020F4080020FC08002004ED00E0D5
:10296000F8B5F0B11A4B1B68834218D0044601F049
:10297000ABFE184A184B176865691E6801F0C6FE61
:10298000BD4219D0B54217D0144B9D4212D0144B02
:102990009D4213D0002D0CBF04200120F8BD002063
:1029A000F8BD4FF0500383F31188BFF36F8FBFF36F
:1029B0004F8FFEE7A36A1BB10220F8BD0420F8BDCB
:1029C00094F85430012B0CBF02200320F8BD00BF47
:1029D0008008002084080020880800205409002076
:1029E0006809002010B5044601F06EFE24B1E46AC7
:1029F00001F08CFE204610BD034B1C68E46A01F018
:102A000085FE204610BD00BF8008002010B504469A
:102A100001F08EFFEFF311834FF0500282F3118823
:102A2000BFF36F8FBFF34F8F1CB1E06A83F3118840
:102A300010BD034A1468E06A83F3118810BD00BF1B
:102A400080080020042908D94FF0500383F311882F
:102A5000BFF36F8FBFF34F8FFEE72DE9F0410446C0
:102A600082B00E4601F030FE002C60D0204602F00D
:102A70009FFE002501463246282003F057F8236BBD
:102A80000095324604F13401204602F03BF8A36C75
:102A90009E4247D0274A09D91168A1420BD012683B
:102AA000D56AB5428CBF0025012504E015682D1BB1
:102AB000B5FA85F56D09E76AA664BB42A36908BF4C
:102AC000E662002BA4BFC6F10506A6611A4E626934
:102AD00007EB870306EB83039A421AD104F104083B
:102AE0004046FEF7B7FC154B30B91A68012101FAD0
:102AF00007F722EA07021A60E06A1C680122824096
:102B000000EB80002243414606EB80001A60FEF78E
:102B100077FC3DB10A4B4FF080521A60BFF34F8FE4
:102B2000BFF36F8F02B0BDE8F04101F0EFBD014B84
:102B30001C689BE7800800208C0800200409002006
:102B400004ED00E070B504463D4D01F0BDFD002CE4
:102B500052D0204602F02CFE261D0146292002F00C
:102B6000C7FF3046FEF776FC30B9E16A354A01EB23
:102B700081039B00D35863B3A36A1BB104F118000F
:102B8000FEF768FC1B21204603F092FD31462E48DB
:102B90002E4EFEF735FC94F85430012B04BF002371
:102BA00084F8543001F0B2FD3368D3B92B68A342E6
:102BB00000D070BD336833B3254B1B68002B2FD07A
:102BC0004FF0500383F31188BFF36F8FBFF34F8F24
:102BD000FEE72048012203688A4023EA02030360DB
:102BE000CAE701F071FD1C4B1B681B6833B1FFF78E
:102BF000B5FC01F08BFDD9E72C68AAE7174B4FF025
:102C0000FF321A60F5E71049154A096812689142C7
:102C10000FD00F4B1B6873B1124B01221A6070BDAD
:102C2000114B4FF080521A60BFF34F8FBFF36F8F7D
:102C300070BD2B6070BDBDE87040FFF79BBC00BF4E
:102C4000800800208C080020540900205009002032
:102C5000FC0800200409002084080020340900201A
:102C6000F00800208009002004ED00E0F8B578B1FC
:102C7000224D2B6883420AD0044601F025FD2046F0
:102C8000FFF750FC68B9BDE8F84001F03FBDF8BD62
:102C90004FF0500383F31188BFF36F8FBFF34F8F53
:102CA000FEE7204602F084FD271D01462A2002F09F
:102CB0001FFF3846FEF7CEFB114E204603F0D6FC30
:102CC000E26AD6F800C00F480123934002EB82026B
:102CD00043EA0C0300EB820039463360FEF790FBB9
:102CE0002B68E26ADB6A9A42CDD3074B4FF08052E1
:102CF0001A60BFF34F8FBFF36F8FC4E780080020C7
:102D0000040900208C08002004ED00E0C0B12DE98A
:102D1000F041044601F00CFEEFF311854FF0500333
:102D200083F31188BFF36F8FBFF34F8F2046FFF7F8
:102D3000F9FB70B9074685F311883846BDE8F08184
:102D40004FF0500383F31188BFF36F8FBFF34F8FA2
:102D5000FEE7204602F02CFD01462B2002F0C8FEC3
:102D6000164B1B681BBB164BE76A1B68154EDB6ACC
:102D700004F104089F42404634BF00270127FEF7B4
:102D800069FB204603F072FCE26A0F4834680123B5
:102D9000934002EB82022343414600EB8200336002
:102DA000FEF72EFB85F311883846BDE8F08104F16B
:102DB00018010648FEF724FB0027BCE7FC080020AA
:102DC00080080020040900208C0800203C09002015
:102DD00070B582B00024204D0195009423468222D4
:102DE0001E491F48FFF71EFC01280CD0013001D0FE
:102DF00002B070BD4FF0500383F31188BFF36F8FA3
:102E0000BFF34F8FFEE701F0BBF80128EED14FF082
:102E1000500383F31188BFF36F8FBFF34F8F114BB4
:102E200011492A68114E4FF0FF351D60104B30607C
:102E30000C601968914207D0186803F0E3FB02B0F8
:102E4000BDE8704001F0ECBC03F086FB02B0BDE8C9
:102E5000704001F0E5BC00BF30090020E07E0008B2
:102E6000B1240008340900207C090020500900200A
:102E7000800800204FF0500383F31188BFF36F8F59
:102E8000BFF34F8F024B00221A6001F00BBC00BF52
:102E900050090020024A136801331360704700BFD5
:102EA000FC080020014B1868704700BF7C09002017
:102EB00008B501F03DFD014B186808BD7C090020F4
:102EC000014B1868704700BFF008002008B134308B
:102ED0007047064B18680028F9D14FF0500383F370
:102EE0001188BFF36F8FBFF34F8FFEE7800800207C
:102EF000064B186800B170474FF0500383F31188F8
:102F0000BFF36F8FBFF34F8FFEE700BF3009002084
:102F10002DE9F84F4D4B1B68002B3DD14C4B1E68E3
:102F200001361E60FEB1DFF848B1DBF80030B34275
:102F30003AD9484FDFF83C810024D8F800304649A0
:102F4000DB6A03EB83039B00FA580B68022A28BF55
:102F50000124002B74D0414B1B68002B0CBF204672
:102F60000120BDE8F88F3E4D2B681B68002B5BD11C
:102F70003C4B29683C4A1868286019601368013383
:102F800013602B681B68002B57D1DFF8E4B04FF0BB
:102F9000FF33CBF80030C8E72F4A136801331360C2
:102FA0000024FEF75BF9D6E72D4D2A4FDFF8C480E9
:102FB000002430E02B68DB68D3F80C90D9F80410BB
:102FC00009F1040A8E4250463DD3FEF743FAD9F880
:102FD000281009F1180009B1FEF73CFA484603F041
:102FE00045FB224AD9F82C001368012101FA00FCA4
:102FF00000EB80004CEA030C514607EB8000C2F85E
:1030000000C0FEF7FDF9D8F80000D9F82C10C36A0B
:10301000994228BF01242B681B68002BCAD14FF0AE
:10302000FF33CBF8003088E74FF0500383F311886B
:10303000BFF36F8FBFF34F8FFEE7FFF78FFA72E793
:10304000FEF70CF987E7CBF8001076E7FC080020C4
:103050007C0900208C080020F8080020800900204E
:103060008408002088080020380900200409002076
:1030700034090020800800202DE9F84F3A4C2368DD
:1030800043B94FF0500383F31188BFF36F8FBFF341
:103090004F8FFEE701F018FB2368013B2360246893
:1030A000002C4DD1314B1B68002B49D0304DDFF83F
:1030B000D8A0304EDFF8D490DFF8D4B0DAF8003082
:1030C00001273BB3DAF80C30DC6804F1040804F1A2
:1030D0001800FEF7BFF94046FEF7BCF9204603F0A2
:1030E000C5FAE06A326807FA00F300EB8000134388
:1030F000414609EB80003360FEF782F9DBF80030CF
:10310000E26ADB6A9A42D9D32F60DAF800300127ED
:10311000002BD7D13CB1184B1B681B6803BB174B66
:103120004FF0FF321A60164E34683CB10127FFF7AA
:10313000EFFE00B12F60013CF9D134602B682BB950
:10314000002401F0E3FA2046BDE8F88F0D4B4FF064
:1031500080521A60BFF34F8FBFF36F8F0124F0E7E7
:10316000FFF7FCF9DFE700BFFC080020F0080020B3
:103170008009002004090020840800203409002070
:10318000F808002004ED00E03C0900208C08002035
:103190008008002038B540B341B94FF0500383F3A5
:1031A0001188BFF36F8FBFF34F8FFEE71D4D2B6864
:1031B00023BB0C462968034601311B481A68296065
:1031C000056814192CBF01210021AA421C601ED9D8
:1031D000F1B9FFF751FF38B9144B4FF080521A6024
:1031E000BFF34F8FBFF36F8F38BD4FF0500383F3A2
:1031F0001188BFF36F8FBFF34F8FFEE74FF050037F
:1032000083F31188BFF36F8FBFF34F8FFEE709B9C8
:10321000A542DED2242002F059FC601B0021FFF7FA
:10322000F7F8D6E7FC0800207C09002004ED00E058
:1032300038B5D0B1114B1D6845B14FF0500383F341
:103240001188BFF36F8FBFF34F8FFEE71A680146F7
:103250000132044623201A6002F04AFC2946204627
:10326000FFF7D6F8FFF708FF38B9054B4FF080524B
:103270001A60BFF34F8FBFF36F8F38BDFC0800207B
:1032800004ED00E0044B1B681BB1044B01221A60E3
:103290007047FFF76FB900BFFC08002080090020CD
:1032A00060B110B50A4B0C4619681831FEF7B8F832
:1032B00020460121BDE81040FFF7AAB84FF05003A7
:1032C00083F31188BFF36F8FBFF34F8FFEE700BF0B
:1032D0008008002038B558B1124B1B688BB94FF0ED
:1032E000500383F31188BFF36F8FBFF34F8FFEE757
:1032F0004FF0500383F31188BFF36F8FBFF34F8FED
:10330000FEE71446084A0B461568116843F000436F
:10331000AB611831FEF774F820460121BDE8384052
:10332000FFF776B8FC0800208008002038B598B177
:103330000E4B0C46196815461831FEF761F8002D42
:1033400018BF4FF0FF34242002F0C0FB294620466E
:10335000BDE83840FFF75CB84FF0500383F31188A5
:10336000BFF36F8FBFF34F8FFEE700BF80080020D1
:10337000F8B5C368DC68002C2DD004F11805284688
:10338000FEF768F8184B1B6873B129461748FEF71B
:1033900037F8174BE26A1B68DB6A9A4283BF154B0A
:1033A000012018600020F8BD261D3046FEF752F8B7
:1033B000114D204603F05AF9E26A2F680F480123A5
:1033C000934002EB82023B43314600EB82002B60CC
:1033D000FEF716F8DDE74FF0500383F31188BFF3D3
:1033E0006F8FBFF34F8FFEE7FC0800203C090020E1
:1033F0008008002080090020040900208C0800209B
:10340000F8B51F4B1B6843B94FF0500383F3118885
:10341000BFF36F8FBFF34F8FFEE7C46841F00041E9
:1034200001601CB3271DFEF715F83846FEF712F8A9
:10343000144E204603F01AF9E36AD6F800C0124889
:10344000012505FA03F203EB830342EA0C0200EBC9
:10345000830039463260FDF7D3FF0C4BE26A1B68EC
:10346000DB6A9A4284BF0A4B1D60F8BD4FF05003DF
:1034700083F31188BFF36F8FBFF34F8FFEE700BF59
:10348000FC080020040900208C080020800800208F
:103490008009002068B110B5044601F015F9094A09
:1034A000094B12681B68C4E90023BDE8104001F015
:1034B0002DB94FF0500383F31188BFF36F8FBFF323
:1034C0004F8FFEE7380900207C090020034A044B97
:1034D00012681B68C0E90023704700BF380900204C
:1034E0007C090020F8B508B3B9B10D46044601F0D7
:1034F000EBF82B68DFF878C05A1CDCF800102BD0F2
:103500001A4ED4E900023768B84218D08A4216D859
:10351000012501F0FBF82846F8BD4FF0500383F376
:103520001188BFF36F8FBFF34F8FFEE74FF050034B
:1035300083F31188BFF36F8FBFF34F8FFEE78F1AAE
:10354000BB420ED95B1A13443168DCF800202B60B3
:103550000025C4E90012DCE7002501F0D7F8284671
:10356000F8BD00232B600125D3E700BF38090020F8
:103570007C090020014B01221A607047800900205D
:1035800000B1406C704700BF00B14164704700BF9C
:1035900070B50C46164650B3054605F13401EA6A8B
:1035A0006160296B22612A6CE161A96CA260052B24
:1035B0004FF000022560C4E905121DD017490968C3
:1035C000A94217D0032B23731BD076B12B6B1A782B
:1035D000A52A21D1C3F10100C11813F8012FA52A92
:1035E000FAD0C1F38F01218470BD268470BD0B4ACF
:1035F0001568D2E72273E8E72846FFF7B1F9207390
:10360000E3E7074AA96A13680133136009B102238B
:103610002373FFF731FDD8E70021E4E7800800209D
:10362000FC0800204B685B682DE9F04701F10808B1
:1036300043454B6008BFCB680E469246D3F80C90CA
:103640000546002700E073685C687460A04504BF0D
:10365000D8F804407460E4682946012253462046A5
:103660001744FFF795FFA14505F12405EBD1384636
:10367000BDE8F0872DE9F843344C354D236801331C
:1036800023602B688B425BD8324E0024074690465D
:10369000A6F15009A4460525013D05EB85000CEB7C
:1036A000040359F820E007EB830331460122184652
:1036B000BEF1000F08D0FFF7B5FF04444FEAC40C79
:1036C0000CEB040307EB8303143E002DE4D1224AE4
:1036D00011680A6842B118460222FFF7A3FF0444AA
:1036E00004EBC40307EB83031C4A11680A6842B168
:1036F00018460222FFF796FF044404EBC40307EBCD
:10370000830317490A6842B118460422FFF78AFF6B
:10371000044404EBC40307EB830312490A6822B193
:1037200018460322FFF77EFF0444B8F1000F02D0D1
:103730000023C8F80030FFF79FFC2046BDE8F8835F
:103740000024FFF799FC2046BDE8F883FC08002020
:10375000F0080020DC0800208408002088080020F1
:10376000680900205409002008B1006B7047024B23
:103770001868006B704700BF80080020014B186874
:10378000704700BF80080020054B1B6833B1054B14
:103790001B68002B0CBF02200020704701207047DF
:1037A00050090020FC08002040B3F8B5264DC36A3C
:1037B0002A68D26A934219D28269002A04DB2A68F5
:1037C000D26AC2F105028261204E426903EB830393
:1037D00006EB83039A42044611D02B68DB6AC3626E
:1037E0002146492002F084F90120F8BD2B68806C45
:1037F000DB6A98422CBF00200120F8BD7047071DEE
:103800003846FDF727FE70B9E16A114A01EB8103E2
:103810009B00F35843B91368012000FA01F123EA31
:103820000103136000E00A4A2B681568D86AE06259
:103830000123834000EB80002B43394606EB8000D8
:103840001360FDF7DDFDCBE7800800208C08002029
:1038500004090020A8B12B4B1B68834208D04FF00D
:10386000500383F31188BFF36F8FBFF34F8FFEE7D1
:10387000DB6C43B1C16A826C013B9142C36400D0EE
:1038800053B1002070474FF0500383F31188BFF30A
:103890006F8FBFF34F8FFEE72DE9F04100F1040871
:1038A00004464046FDF7D6FDE0B1174F174D2146BF
:1038B0004A2002F01DF9A06CD5F800C0E062012694
:1038C000C0F1050206FA00F300EB800043EA0C03A6
:1038D00007EB80004146A2612B60FDF791FD304669
:1038E000BDE8F081E16A084F084D01EB81039B00C0
:1038F000FB58002BDBD12B6801228A4023EA02030C
:103900002B60D4E7800800208C08002004090020E8
:10391000A8B1F8B5C36C4BB1856CC26A8D4238BF93
:103920000D46AA4201D0012B0AD0F8BD4FF050033A
:1039300083F31188BFF36F8FBFF34F8FFEE770479C
:10394000244B1B6883422DD0044601464A2002F0D6
:10395000CFF8A269E36A204EE562002A03EB8303F5
:103960006269A8BFC5F1050506EB8303A8BFA56181
:103970009A42DAD1271D3846FDF76CFDD8B1174DB4
:10398000204602F073FEE06A2A6801238340134355
:1039900000EB8000394606EB80002B60BDE8F84064
:1039A000FDF72EBD4FF0500383F31188BFF36F8FE7
:1039B000BFF34F8FFEE7E16A084D01EB81039B00E7
:1039C000F358002BDCD12B6801228A4023EA020342
:1039D0002B60D5E7800800208C0800200409002017
:1039E000044A116813681268DB6A8869C3F1050329
:1039F0009361704780080020044B1A681AB1196857
:103A0000CA6C0132CA641868704700BF8008002081
:103A100070B51A4C06460D4600F056FE23681B6D25
:103A200023B92368012183F85410D5B900F06EFE44
:103A300000F04AFE2A463146422002F077F8236819
:103A40001D6D1DB123684EB100221A652368002246
:103A500083F8542000F05AFE284670BD6A1E1A658D
:103A6000F4E72846FEF7D4FC054B4FF080521A606D
:103A7000BFF34F8FBFF36F8FD8E700BF80080020E0
:103A800004ED00E02DE9F041244C82B01E460746CB
:103A90008846154600F018FE236893F85430022B30
:103AA00009D02268136D23EA0703136523680121F7
:103AB00083F85410F6B900F029FE00F005FE0096D8
:103AC00039462B464246402002F0A8F815B123683B
:103AD0001B6D2B60236893F85430022B16D0002501
:103AE0002368002283F8542000F010FE284602B01C
:103AF000BDE8F0813046FEF78BFC094B4FF0805259
:103B00001A60BFF34F8FBFF36F8FD4E72268136D36
:103B100023EA080313650125E2E700BF80080020BF
:103B200004ED00E0C8B12DE9F0411F4682B0044623
:103B300090460E4600F0C8FD0FB1236D3B6094F82F
:103B400054500223EDB284F85430B8F1040F69D810
:103B5000DFE808F00F0C454B49004FF0500383F3AA
:103B60001188BFF36F8FBFF34F8FFEE7236D334391
:103B70002365204601F01CFE00970146434632466D
:103B80003E2002F04BF8012D06D0012500F0BEFDCD
:103B9000284602B0BDE8F081271D3846FDF75AFCE3
:103BA000264E204602F062FDE36AD6F800C02448A3
:103BB00005FA03F203EB830342EA0C0200EB8300F5
:103BC00039463260FDF71CFCA36A83B14FF0500305
:103BD00083F31188BFF36F8FBFF34F8FFEE7236D21
:103BE00001332365C5E7022D10D02665C1E7154BCB
:103BF000E26A1B68DB6A9A42C7D9134B4FF08052C6
:103C00001A60BFF34F8FBFF36F8FBFE7204601F0FD
:103C1000CFFD00970146324604233E2001F0FEFF0F
:103C20000025B3E7236D0133A3D04FF0500383F396
:103C30001188BFF36F8FBFF34F8FFEE70409002099
:103C40008C0800208008002004ED00E02DE9F047FA
:103C500082B0DDF8289018B30446984692460E4686
:103C600000F066FEEFF311874FF0500383F31188E5
:103C7000BFF36F8FBFF34F8FB8F1000F02D0236DEA
:103C8000C8F8003094F854500223EDB284F8543050
:103C9000BAF1040F79D8DFE80AF00F0C2F353300A2
:103CA0004FF0500383F31188BFF36F8FBFF34F8F33
:103CB000FEE7236D33432365204601F079FDCDF8FF
:103CC00004900146CDF80080534632463F2001F073
:103CD000E5FF012D05D0012087F3118802B0BDE872
:103CE000F087A36A83B14FF0500383F31188BFF3C9
:103CF0006F8FBFF34F8FFEE7236D01332365DBE743
:103D0000022D33D02665D7E7264B1B6843BB04F151
:103D100004084046FDF79EFB234E204602F0A6FC19
:103D2000E26AD6F800C0214805FA02F302EB8202EB
:103D300043EA0C03414600EB82003360FDF760FB71
:103D40001B4BE26A1B68DB6A9A42C4D9B9F1000FC7
:103D500002D00123C9F80030164B01201860BBE7E0
:103D600004F118011448FDF74BFBE9E7204601F088
:103D70001FFDCDF804900146CDF800803F2032466B
:103D8000042301F08BFF0020A6E7236D013393D0BD
:103D90004FF0500383F31188BFF36F8FBFF34F8F42
:103DA000FEE700BFFC080020040900208C0800206A
:103DB00080080020800900203C09002030B32DE954
:103DC000F04104460E4600F0B3FDEFF311874FF0CB
:103DD000500383F31188BFF36F8FBFF34F8F02231C
:103DE00094F8545084F85430236D013323652046F1
:103DF00001F0DEFCEDB201463246412001F096FEB4
:103E0000012D0CD087F31188BDE8F0814FF05003ED
:103E100083F31188BFF36F8FBFF34F8FFEE7A36A61
:103E200043B14FF0500383F31188BFF36F8FBFF39B
:103E30004F8FFEE7184B1B683BBB04F1040840465C
:103E4000FDF708FB204602F011FCDFF860C0E26AD3
:103E5000DCF800E0114805FA02F302EB820243EAC3
:103E60000E03414600EB8200CCF80030FDF7C8FAA3
:103E70000B4BE26A1B68DB6A9A42C3D90EB101237D
:103E80003360084B01221A60BCE704F118010648B0
:103E9000FDF7B6FAECE700BFFC0800208C08002014
:103EA00080080020800900203C090020040900202F
:103EB00010B578B1044600F007FC94F85430022B9A
:103EC00005BF002384F854300024012400F01EFCB8
:103ED000204610BD014B1C68EDE700BF80080020A4
:103EE000F8B5104C00F0F0FB25681DB1BDE8F840B6
:103EF00000F00CBC0C4F0D4E3846FDF771FA304601
:103F0000FDF76EFA0A4A0B4B17600C212A460A206D
:103F10001E60FDF7BBFB20600028E7D00649FEF7D6
:103F200003FAE3E7B80900208C090020A00900206B
:103F30008409002088090020E87E0008914208B525
:103F40000061416005D88169D21A8A420CD30120F0
:103F500008BD9A4201D29942F9D2074B011D186857
:103F6000FDF75EFA002008BD044B011D1868FDF73F
:103F700057FA002008BD00BF8409002088090020EE
:103F800000B583B0FFF7ACFF0D4B1B685BB10D4B69
:103F90000193022300934FF4827200230A490B48D5
:103FA000FEF740FB40B94FF0500383F31188BFF395
:103FB0006F8FBFF34F8FFEE703B05DF804FB00BFC8
:103FC000B8090020BC090020F07E00080D4100085F
:103FD0002DE9F04180462C200D4617461E4600F084
:103FE0001BFA0446A8B145B94FF0500383F311887A
:103FF000BFF36F8FBFF34F8FFEE7FFF771FF069B95
:10400000C4F80080C4E9065726626362201DFDF7EC
:10401000F3F92046BDE8F081C0B170B5164D0446F5
:10402000286884B080B1164605291A46CDE90116E4
:10403000039414DCFFF7A8FB022816D0002328689D
:104040001A4601A9FDF74CFB04B070BD4FF05003B8
:1040500083F31188BFF36F8FBFF34F8FFEE7002309
:1040600001A9FDF749FC04B070BD2868089A002337
:1040700001A9FDF735FBE7E7B80900202DE9F0437A
:10408000DFF8849083B04FF000080CE0DB68DC6858
:104090001F68251D2846FDF7DDF9636A204698470D
:1040A000E369012B0CD0D9F800301A68002AEDD151
:1040B000144A1168C9F80010136003B0BDE8F0831A
:1040C000A66907EB060C002367453A4619462046C9
:1040D00008D2C4F804C02461D9F800002946FDF7CD
:1040E0009FF9E0E7CDF80080FFF796FF0028DAD1CE
:1040F0004FF0500383F31188BFF36F8FBFF34F8FDF
:10410000FEE700BF88090020840900202DE9F04F58
:104110006A4F6B4D6B4CDFF8B49187B04FF00108DC
:104120003B681E68002E46D0DB681E68FEF7B2FEB4
:10413000FEF7B8FE2A68824282464DD88642286041
:1041400054D90022A6EB0A012068FEF739F9FEF7E0
:1041500093FF38B95C4A4FF080531360BFF34F8F21
:10416000BFF36F8F002203A92068FDF7A9FC002888
:10417000D6D0039B002BF5DB059E736913B1301D70
:10418000FDF768F9FEF78EFE2B68984282462AD327
:10419000039BC5F800A0092BE4D808FA03F313F435
:1041A000047B78D113F0C70F4FD19B06DAD5304688
:1041B00000F0C6F9D6E7FEF76DFEFEF773FE2A683B
:1041C0009042824608D3D9F80020C5F800A01268B2
:1041D000B2FA82F25209B5E7FFF750FFC5F800A026
:1041E000FEF74AFFBEE7FFF749FFD1E7FEF744FFBE
:1041F0003A68D268D2F80CB00BF10400FDF72AF946
:10420000DBF81C20012A04D0DBF8243058469847FC
:10421000A8E7DBF818105246314433465846FFF7FA
:104220008DFE0028F0D000233246009319465846F0
:10423000FFF7F2FE0028E7D14FF0500383F3118817
:10424000BFF36F8FBFF34F8FFEE7049BB1695246F8
:1042500019443046FFF772FE002883D0736A304657
:104260009847F369012B7FF47DAFB369049ACDF8C9
:1042700000B01A4430465B465946FFF7CDFE002891
:104280007FF470AF4FF0500383F31188BFF36F8F4B
:10429000BFF34F8FFEE70499B16131B1514430460D
:1042A00053465246FFF74AFE5CE74FF0500383F354
:1042B0001188BFF36F8FBFF34F8FFEE78409002093
:1042C000B4090020B809002004ED00E088090020AE
:1042D000064B186800B170474FF0500383F3118804
:1042E000BFF36F8FBFF34F8FFEE700BFBC09002005
:1042F00008B1806970474FF0500383F31188BFF312
:104300006F8FBFF34F8FFEE708B1406870474FF0E3
:10431000500383F31188BFF36F8FBFF34F8FFEE716
:1043200008B1006870474FF0500383F31188BFF362
:104330006F8FBFF34F8FFEE758B110B5044600F002
:10434000C3F96469003418BF012400F0DFF9204686
:1043500010BD4FF0500383F31188BFF36F8FBFF38D
:104360004F8FFEE740B110B5044600F0ADF9246A66
:1043700000F0CCF9204610BD4FF0500383F31188B4
:10438000BFF36F8FBFF34F8FFEE700BF38B540B16B
:1043900004460D4600F098F92562BDE8384000F06B
:1043A000B5B94FF0500383F31188BFF36F8FBFF39C
:1043B0004F8FFEE7806A70478162704730B4144ABD
:1043C00000E01A4613688342FBD35468416815190C
:1043D000A84208D04418A3420BD09042036030BCDE
:1043E00018BF10607047214410464418A342516022
:1043F000F3D1084C2468A342EFD0D3E900349042B3
:1044000021440360416030BC18BF1060704700BF9A
:10441000D0350120C00900202DE9F0410446FEF707
:1044200039FD40490B68002B4BD03F4B1D682C4297
:104430003FD1002C3DD004F1080358071CBF23F0E6
:1044400007030833002B34D0DFF8F080D8F8007071
:104450009F422ED3354A146803E0266826B12246CF
:10446000344660689842F8D30968A14221D0216897
:1044700016681160C21A102A41D82D490A683F1ADD
:1044800005430023974206F108066560236038BFA4
:104490000F60C8F80070FEF7EFFD66B173070DD02E
:1044A0004FF0500383F31188BFF36F8FBFF34F8F2B
:1044B000FEE7FEF7E1FDFCF7D3FE00263046BDE83F
:1044C000F0811C4B1C4A1A4F184E5D0718BF07336A
:1044D00022F0070218BF23F00703184D0A601846A0
:1044E000D31A3B602B60104F0025C2E90055756060
:1044F0004FF000450260436030603D6097E7E01890
:10450000410708D04FF0500383F31188BFF36F8F3A
:10451000BFF34F8FFEE742606360FFF74FFF6068B5
:10452000ABE700BFC0090020C4350120D035012011
:10453000CC350120C4090020BC350120C83501203C
:10454000D0B1194A50F8043C126813420BD050F80D
:10455000081C91B14FF0500383F31188BFF36F8FA4
:10456000BFF34F8FFEE74FF0500383F31188BFF383
:104570006F8FBFF34F8FFEE7704723EA020310B53A
:1045800040F8043C0446FEF785FC084A54F8043C15
:104590001168A4F108000B441360FFF70FFFBDE89A
:1045A0001040FEF769BD00BFC4350120C8350120A9
:1045B000014B1868704700BFC8350120014B1868CF
:1045C000704700BFCC350120704700BF0848006825
:1045D000006880F308884FF0000080F3148862B60A
:1045E00061B6BFF34F8FBFF36F8F00DF00BF0000D6
:1045F00008ED00E0DFF80C00016841F47001016093
:104600007047000088ED00E00E4B1B6882B000226E
:104610000133019208D04FF0500383F31188BFF3A8
:104620006F8FBFF34F8FFEE74FF0500383F3118876
:10463000BFF36F8FBFF34F8F019B002BFCD002B0F5
:10464000704700BF1800002030B421F001014FF086
:104650008075074C40F80C4C6FF0020340F8202C9A
:1046600040E9021540F8243C30BC4438704700BF94
:1046700009460008000000000000000000000000E3
:10468000074B19680868B0E8F04F80F30988BFF35A
:104690006F8F4FF0000080F311887047AFF30080F8
:1046A00080080020074B1B68B3F57A7F08D04FF0D5
:1046B000500383F31188BFF36F8FBFF34F8FFEE773
:1046C000704700BF180000204FF0500383F311889B
:1046D000BFF36F8FBFF34F8F0A4A13680133012B6B
:1046E000136000D07047084B1B6813F0FF0FF9D020
:1046F0004FF0500383F31188BFF36F8FBFF34F8FD9
:10470000FEE700BF1800002004ED00E0084A13682F
:1047100043B94FF0500383F31188BFF36F8FBFF39A
:104720004F8FFEE7013B13600BB983F3118870478D
:104730001800002000000000000000000000000041
:10474000EFF30980BFF36F8F154B1A681EF0100F3F
:1047500008BF20ED108A20E9F04F10602DE9090014
:104760004FF0500080F31188BFF34F8FBFF36F8F6E
:10477000FEF788FD4FF0000080F3118809BC19682E
:104780000868B0E8F04F1EF0100F08BFB0EC108AB8
:1047900080F30988BFF36F8F704700BFAFF30080CD
:1047A0008008002008B54FF0500383F31188BFF351
:1047B0006F8FBFF34F8F01F00BFEFEF7A9FB48B1DF
:1047C00001F03EFE064B4FF080521A60002383F347
:1047D000118808BD01F022FE002383F3118808BD73
:1047E00004ED00E030B4094A094D0A4B0A4C0B486D
:1047F0000021116029601B68A4FB03139B09013B86
:104800000721036030BC1160704700BF10E000E07A
:1048100018E000E014000020D34D621014E000E026
:104820003A4B3B4A1968914241D01A68394B9A4237
:1048300034D010B5384B394C1A78394982B0D2B2DD
:10484000FF20019218701B78DBB28DF803309DF8C1
:1048500003309DF8032003F0500307201206237055
:10486000086048BF062201D40FE002469DF80330DD
:104870005B00DBB28DF803309DF803301B0602F1BC
:10488000FF30F2D4032A1BD00A604FF0500383F3A9
:104890001188BFF36F8FBFF34F8FFEE74FF05003C8
:1048A00083F31188BFF36F8FBFF34F8FFEE74FF095
:1048B000500383F31188BFF36F8FBFF34F8FFEE771
:1048C000019A1548174BD2B24FF440740C60027035
:1048D0001A6842F470021A601A6842F070421A6054
:1048E000FFF780FF104B00241C60FFF783FE0F4A88
:1048F000136843F040431360FFF768FEFEF7C2FC05
:10490000FFF782FE204602B010BD00BF00ED00E0C0
:1049100071C20F4170C20F4100E400E0D8350120A0
:10492000DC35012020ED00E01800002034EF00E02D
:10493000EFF305830F2B0ED91049114A5B5C1278F7
:104940009A4208D94FF0500383F31188BFF36F8F59
:10495000BFF34F8FFEE70B4B0B4A1B68126803F443
:10496000E063934208D94FF0500383F31188BFF3FB
:104970006F8FBFF34F8FFEE7704700BFF0E300E09B
:10498000D83501200CED00E0DC35012008B50448E5
:1049900001F006FD0348BDE8084001F001BD00BF7D
:1049A000F87E00083C7F000808B5064A064B1168EF
:1049B000064A084600F08AFE4FF00050BDE8084065
:1049C00000F0B6BE140000208D4900089C7F00084E
:1049D00008B5FEF76DFA4FF47A73A0FB030108BD2A
:1049E000F8B5204C25687DB11F4E3368984205F11B
:1049F000FF3726D03246002303E052F8141F8142CD
:104A000003D001339D42F8D1F8BD9F421DD007EB82
:104A10008707BF0003EB83039B00F019F259F250A4
:104A2000F518D0E90132C1686B600369AA60E960DA
:104A30002B611422002102F06DFB2368013B2360EF
:104A4000F8BD0023002FE2D13B4603EB830306EBC6
:104A500083001422002102F05DFB2368013B2360E8
:104A6000F8BD00BFE0350120E4350120F0B587B086
:104A700004460F4616460021142201A81D4602F0E6
:104A800049FB0C9B059301A8CDE90147CDE90365DE
:104A900001F022FC07B0F0BD2DE9F0470C4681463D
:104AA0009046084605221349089E1F4602F000FB67
:104AB000F0B111490B68072B15D81048089603EB85
:104AC000830292008518013340F802900B60424641
:104AD0003B4648462146C5E90148C5E90376BDE89D
:104AE000F047FFF7C3BF0648BDE8F04702F03EBA03
:104AF000BDE8F087E07E0008E0350120E4350120C4
:104B00004C7F00082DE9F0410D4604461646084644
:104B100005221D49DDF818801F4602F0C9FAE0B1F0
:104B20001A4B186878B1DFF868C0DCF800309C4296
:104B300015D06246002303E052F8141FA1420FD0A3
:104B400001338342F8D1CDF818803B4632462946DE
:104B50002046BDE8F041FFF79FBFBDE8F08100238C
:104B600003EB83030CEB830CCDF818803B46204607
:104B70003246CCF804502946CCE90267CCF81080C4
:104B8000BDE8F041FFF772BFE07E0008E03501208C
:104B9000E435012070B50B4E336882B07BB10A4C0E
:104BA000002523690093D4E90001D4E90223FFF72B
:104BB0005DFF33680135AB4204F11404F1D802B053
:104BC00070BD00BFE0350120E43501202DE9F04142
:104BD000D0E902C40546ACEB040640689642204486
:104BE000144409D832468846A4EB0C04FCF7D8F9E3
:104BF000686808EB06012246FCF7D2F9EC60BDE8D4
:104C0000F08100BF2DE9F8438846D0E90215064639
:104C100017464FF00009336970689D4203F1FF3475
:104C200026BF03F1FF335B18631BA1EB050428BF0C
:104C30005B1BBC4228BF3C469C4228BF1C464146E9
:104C400028442246FCF7ACF9B1682544A94208BFC4
:104C500000253F1BA144A044F560DCD14846BDE8D7
:104C6000F88300BF38B5114C114B1248E361102591
:104C70004FF48063104A1149236260660023A566E1
:104C8000E01D0325A3626362E3622367E366636753
:104C9000A2612266C4E9045502F054FB204608498B
:104CA00002F050FB2023A37138BD00BF2C5C012013
:104CB0009836012088360120A47F0008B07F0008C4
:104CC000B47F00082DE9F04FDFF8A8A09AF8003073
:104CD00083B081468B469046002B47D04FEA490768
:104CE00007EB09060AEBC606356FF36E9D421FD827
:104CF0005C1B444528BF44461CB9204603B0BDE8B0
:104D0000F08F264607EB09030AEBC3032246596ED0
:104D100058462944FCF744F925443446002CECD08D
:104D20004F440AEBC70720463D6703B0BDE8F08F4C
:104D3000D6E91914641B444528BF44462246294439
:104D400058460193FCF72CF9B26E019B2544AA4208
:104D5000A8EB040814BF5B1B0025434528BF43464E
:104D6000002BDBD0A344E6181C46CBE7FFF77AFF05
:104D7000B4E700BF2C5C012010B50B46EFF31184A3
:104D80004FF0200181F311881946FFF79BFF84F350
:104D9000118810BD2DE9F04F4FEA400B344F0BEB5B
:104DA000000307EBC30381460E46586A996A88429E
:104DB00083B0154659D09A6A90429A6A24BF1B6AFA
:104DC000D218013A121AAA4211D20BEB090307EBCF
:104DD000C3039C6A196A2C44A21A9A629A6A914285
:104DE00005D89A6A521A9A629A6A8A42F9D20BEBE9
:104DF00009084FEAC80807EB08031C6A241A09F1DE
:104E00000103A54201931BD303EB430307EBC30A42
:104E100001E0A54214D3DAF80410224608443146D2
:104E2000FCF7BEF807EB08020021136A51622D1B44
:104E3000264408465C1E002DEBD103B0BDE8F08F80
:104E4000019B03EB430A07EBCA0AD944DAF80430A2
:104E500007EBC9072A4631461844FCF7A1F87B6ADC
:104E60001D447D6203B0BDE8F08F1A6A013AAAE7DB
:104E70002C5C01202DE9F047284F00EB400407EBA4
:104E8000C4041646A36A656AAB420DD8D4F820E084
:104E9000AEEB050808F1FF3C944517D263449A42F3
:104EA0001BD90020BDE8F087013B5B1B9A42F8D874
:104EB000013000EB400007EBC00040682844354457
:104EC000FCF76EF865620120BDE8F087013000EB69
:104ED000400007EBC0077868F0E7013000EB4000C6
:104EE00007EBC0079045786805EB020A284405D90E
:104EF000FCF756F8C4F824A00120D3E7AAEB0E056E
:104F000089464246FCF74CF809EB080178682A46C6
:104F1000FCF746F865620120C4E700BF2C5C012065
:104F200070B5204D00EB400305EBC3030130DC6A94
:104F300000EB4000012C05EBC0000E46154609D0E1
:104F4000BCB1022C03D1BDE87040FFF75BBE00246A
:104F5000204670BD9A6A5C6AA2421DD9013A141BB0
:104F6000AC4228BF2C4631462246FFF72FFE204692
:104F700070BD9A6A596A8A4209D9013A521A954211
:104F8000E6D831462A46FFF721FE2C46E0E71B6AA9
:104F90001344013B5A1AF2E71B6A1344013B1C1BE2
:104FA000DEE700BF2C5C012030B50C4B1B7883B0D2
:104FB0000D4663B1EFF311844FF0200181F31188A6
:104FC0002946FFF7ADFF84F3118803B030BDCDE96A
:104FD0000002FFF747FEDDE90002EBE72C5C012051
:104FE00038B5054608460C46FCF78AF821460246C5
:104FF0002846BDE83840FFF7D7BF00BFF0B40E4CDD
:1050000000EB400304EBC303D3E908759E6A6A1CF6
:10501000974208BF002296420AD0013000EB4000C0
:1050200004EBC0040120646861555A62F0BC70470B
:105030000020F0BC704700BF2C5C01202DE9F0413E
:10504000164D2B78044688462BB3EFF311874FF0AB
:10505000200181F3118804EB440305EBC303596A73
:105060001E6A986A4A1C964208BF002290420DD0E0
:10507000013404EB440405EBC4040120646804F823
:1050800001805A6287F31188BDE8F081002087F320
:105090001188BDE8F081FFF7E5FDD6E72C5C012023
:1050A000F0B51F4D2B7883B004460E46002B33D04D
:1050B000EFF3118C4FF0200181F3118861000B197F
:1050C00005EBC303D86A5F6A0190186A7A1C9042A4
:1050D00008BF00220198022812D0214405EBC1012B
:1050E0008B6A934213D0013404EB440405EBC404EF
:1050F00001206368DE554A628CF3118803B0F0BD6D
:10510000986A9042E9D1986A9042F9D0E5E7002088
:105110008CF3118803B0F0BDFFF7A4FDC8E700BF12
:105120002C5C012010B582B0EFF311844FF0200108
:1051300081F3118801220DF107010020FFF7C2FD64
:1051400084F3118801280CBF9DF807004FF0FF3051
:1051500002B010BD08B5FFF7E5FF0028FBDB08BD76
:1051600010B5064C23782BB1E36E206FC01A18BF20
:10517000012010BDFFF776FDF6E700BF2C5C012093
:10518000044B00EB400003EBC003D86E1B6FC01A4A
:10519000704700BF2C5C0120044B00EB400003EB88
:1051A000C0039A6A586A801A704700BF2C5C0120BD
:1051B0002DE9F84F194E34788146884692469B4631
:1051C0004CB3EFF3118C4FF0200181F31188776914
:1051D000124E0020344602E00130874215DD656E34
:1051E0001834002DF8D187420FDD00EB400406EBA8
:1051F000C404C4E91898C4F868A02567E566C4F833
:1052000074B08CF31188BDE8F88F4FF0FF308CF349
:105210001188BDE8F88FFFF725FDD2E72C5C01204F
:105220002DE9F84F1D4F3C788246884691469B46B3
:1052300084B3EFF311834FF0200181F311883E69AD
:10524000164F00203C4602E0013086421CDDE56935
:105250001834002DF8D1864216DD441C04EB4404BA
:10526000E40000EB400207EBC20247F804A0274429
:10527000C2F82090C7F8048095625562C2F82CB03D
:1052800083F31188BDE8F88F4FF0FF3083F3118866
:10529000BDE8F88FFFF7E6FCCBE700BF2C5C0120F0
:1052A0002DE9F843194C2678054688461746994655
:1052B00036B32369AB4226D9EFF311864FF02001B4
:1052C00081F3118855B92846284404EBC004089B93
:1052D000E36286F311880020BDE8F883691C01EBC6
:1052E0004101C9006800431904EBC30344F801807D
:1052F00021440022C3F820904F609A625A62E3E78B
:10530000FFF7B0FCD5E74FF0FF30E5E72C5C01205C
:105310002DE9F843164C267805460F4690469946E7
:1053200006B36169A94220D9EFF311864FF020013D
:1053300081F3118855B92846284404EBC004089B22
:10534000636786F311880020BDE8F883680041197F
:1053500004EBC1010023C1E91878C1F868900B671C
:10536000CB66E9E7FFF77EFCDBE74FF0FF30EBE7CA
:105370002C5C012070B50E4D2B7804460E468BB187
:105380002B69A34211D9EFF311834FF0200181F370
:105390001188013404EB440445F8346083F3118828
:1053A000002070BDFFF75EFCEAE74FF0FF3070BDF4
:1053B0002C5C012070B50E4C237805460E468BB14F
:1053C0006369AB4211D9EFF311834FF0200181F3F0
:1053D000118805EB450504EBC504266683F31188A7
:1053E000002070BDFFF73EFCEAE74FF0FF3070BDD4
:1053F0002C5C012070B50E4C237805460E468BB10F
:105400002369AB4211D9EFF311834FF0200181F3EF
:10541000118805EB450504EBC504E66283F31188AA
:10542000002070BDFFF71EFCEAE74FF0FF3070BDB3
:105430002C5C012070B50E4C237805460E468BB1CE
:105440006369AB4211D9EFF311834FF0200181F36F
:10545000118805EB450504EBC504666783F31188E5
:10546000002070BDFFF7FEFBEAE74FF0FF3070BD94
:105470002C5C0120FFF7F6BB70B5224C237882B07C
:10548000064683B3FF230F2E8DF8043036D81E4B0B
:105490009B5D8DF80530EFF311854FF0200181F30E
:1054A0001188E26A02F00302022A1FD0A36A616A2D
:1054B0008B4209D9013B5B1A012B0BD84FF0FF300F
:1054C00085F3118802B070BD226A1A44013A531A5A
:1054D000012BF3D90D4B0E481E70022201A9FFF7D4
:1054E00075FB0020ECE7FFF7BDFBCBE7074B084857
:1054F0001E7001A9FFF786FB0020E1E74FF0FF30A7
:10550000E0E700BF2C5C0120BC7F0008843601204E
:10551000445C01202DE9F047524C237882B00546C7
:105520000E46002B54D00F2D00F298803046FBF72A
:10553000E7FD8046EFF311874FF0200181F31188DA
:10554000A36A616A8B4233D9E46A04F00304013B25
:10555000012CA3EB010935D0002C3CD0022C34D116
:10556000DFF80C91404819F805308DF8053001A995
:105570004FF0FF0A22468DF804A0FFF743FB424696
:1055800031463948FFF73EFB384B8DF804A01B78B5
:10559000054619F8033034488DF8053001A9224634
:1055A000FFF730FB87F31188284602B0BDE8F0878B
:1055B000226AE46A1A4404F00304013A012CA2EBC3
:1055C0000109C9D1B9F1030F0BD84FF0FF35E9E755
:1055D000FFF748FBA7E708F104034B4525D925460B
:1055E000E0E7234C2048635D8DF8053001A94FF0BA
:1055F000FF0A02228DF804A0FFF704FBA9F10402C0
:10560000424528BF424631461748FFF7FBFA174B81
:105610008DF804A005461B781348E35C8DF805302F
:1056200001A90222FFF7EEFABCE7114C0E48635DB8
:105630008DF8053001A94FF0FF0902228DF8049082
:10564000FFF7E0FA424631460748FFF7DBFA074B1F
:105650008DF8049005461B780348DEE74FF0FF35D0
:10566000A2E700BF2C5C0120445C012084360120AD
:10567000BC7F00080B782BB370B40B46C1F1010658
:10568000F51813F8014F002CFAD1AA4228BF2A4678
:10569000FE2AD4B211D9FF25130A44700570837015
:1056A00003304B1E9C1C641A5D7800F8015B944229
:1056B00003F10103F6D370BC704700F8014B002AD8
:1056C000EFD1F8E700F8013B704700BF2DE9F04348
:1056D000124D83B0002480460F4691461E4629464F
:1056E00000944FF400530E4A0120FFF7D9FD2946DC
:1056F000009408230B4A0120FFF70AFE0A4A0B4BCD
:105700001268C3F820904FF08051C3E901875E62B0
:10571000C3E903211C7003B0BDE8F083CC7F00080F
:10572000CC3A0120983A0120041000E0A43A01206C
:10573000014B1861704700BFA43A0120034B1B6A5C
:1057400013B15B6803B11847704700BFA43A01204A
:1057500004E061F07F0300F8013BC9097F29F8D814
:1057600000F8011B704700BFFFF784BF034600F835
:10577000012B52B130B48D1811F8014B03F8014FD1
:10578000A942F9D1104430BC70477047074B1B69E0
:10579000C91A89087F2906D961F07F03C9097F29C1
:1057A00000F8013BF8D800F8011B7047A43A01202B
:1057B000024B1B69C01A8008704700BFA43A012041
:1057C000054B10B51C682CB1E36803B198472469F8
:1057D000002CF9D110BD00BFB05B012010B5EFF374
:1057E00011844FF0200181F31188094B1B781A06B0
:1057F0000CD508490B7105310123074801F8013B1D
:105800001B2200F0C3F884F3118810BD0249F4E7AD
:10581000A03A0120CC5A0120D05A012038B52B4C97
:10582000237803B138BD01202070EFF311854FF0CC
:10583000200181F311880A222549FFF71BFB85F31C
:1058400011880A2000F042F9EFF311854FF0200192
:1058500081F3118862681F4B7F2A06D962F07F01AD
:10586000D2097F2A03F8011BF8D8A16803F8012B9D
:105870007F2906D961F07F02C9097F2903F8012B2E
:10588000F8D8226903F8011B7F2A06D962F07F014C
:10589000D2097F2A03F8011BF8D8022019181A70C0
:1058A000587018220B4800F071F885F31188636A6C
:1058B00003B1984700F064F9236A13B15B6803B140
:1058C0009847BDE83840FFF789BF00BFA43A0120E0
:1058D000E47F0008D05A012010B5012282B00DF1FA
:1058E00007011046FFF7EEF9002813DD9DF8073099
:1058F000042B39D010D9062B33D02FD3072B16D039
:10590000802B1FD101220DF107011046FFF7DAF9B4
:10591000002832DC02B010BD022B1CD004D8012BB1
:1059200010D1FFF77BFFF5E700F02AF9F2E7154BFE
:105930001C68002CEED0E36803B198472469002C62
:10594000F9D1E7E71B06E5D501220DF10701104665
:10595000FFF7B8F9DEE700F063FCDBE700F07CFC62
:10596000D8E7FFF73BFFD5E7074B1B6A002BD1D0E9
:105970005B68002BCED09847CCE79DF8070000F07D
:105980008BFFC7E7B05B0120A43A01202DE9F0416D
:105990004B4D2B78012B84B006460C46174602D09F
:1059A0001BB3022B55D01F2F2BD8EB69FB40DB0715
:1059B0001BD4172FFBB225D806F8013C721E4149B3
:1059C000EB680E68F31A7F2B06D963F07F01DB09C1
:1059D0007F2B04F8011BF8D804F8013B1146012085
:1059E000A21AFFF747FA38B3EE60374BD3F884209A
:1059F000D3F888309A4201D0AC78ACB104B0BDE89D
:105A0000F081FBB2A21B7F2AD1B219D806F8011C83
:105A1000013E7F2FD0D9FF0963F07F0306F8017C98
:105A200006F8023CB21ECAE70123AB70FFF754FF31
:105A3000AC7004B0BDE8F0812B7801332B70D4E753
:105A4000D20961F07F0106F8012C06F8021C023E23
:105A5000DFE76B6901227F2B8DF804200DF1050231
:105A600006D963F07F01DB097F2B02F8011BF8D810
:105A700002F8013B1349EB68D1F80080A8EB03035F
:105A80007F2B06D963F07F01DB097F2B02F8011B16
:105A9000F8D802F8013B01A80146121A0120FFF7CD
:105AA000E9F940B12B78C5F80C80013BDBB22B70D3
:105AB000012B9AD177E76A692B7801326A61F7E79F
:105AC000A43A0120041000E02C5C012010B502462D
:105AD000EFF311844FF0200181F311880349084648
